:020000040800F2
:10000000C83B0020DF680008D3680008D5680008F6
:10001000DB680008D7680008D9680008DD680008B8
:10002000DD680008DD680008DD680008DD6800089C
:10003000DD680008DD680008EB3400082351000883
:10004000E93D0008ED3D0008F13D0008F53D0008E0
:10005000F93D0008FD3D0008013E0008053E00088E
:10006000093E00080D3E0008113E0008153E00083C
:10007000193E00081D3E00089D5D0008213E000855
:10008000253E0008293E00082D3E0008313E0008AC
:10009000353E0008393E00083D3E0008413E00085C
:1000A000453E0008493E00084D3E0008513E00080C
:1000B00011670008355E0008553E0008593E0008EB
:1000C0005D3E0008613E0008653E0008693E00088C
:1000D0006D3E00086F2A0008B92A0008F52A0008BA
:0C00E000713E0008753E0008793E0008E3
:1000EC002DE9F04F80460FF21C60A5B017461D4657
:1000FC00D0E90023CDE91223002004910D900DF1DD
:10010C00500A6FF0004900E0E7190020ADF802003A
:10011C0012AB4FF0FF3239460DF1020001F08BF8B3
:10012C000446012C04DA3878441EA441E443E40F5D
:10013C00BDF8020025280CBFA4F1010BA346BBF1AE
:10014C00010F0EDB3E4616F8011B0498C047002831
:10015C00049000F0D2820D98401CBBF1010B0D9065
:10016C00F1D1BDF80200252807D100200790089096
:10017C0009900A900B900C9005E00028C4D10D98C2
:10018C00BDE240F0010017F8011F2029F9D0232906
:10019C000DD02B2904D02D2906D030290AD00CE003
:1001AC0040F0020080B2EEE740F00400FAE740F0C5
:1001BC000800F7E740F01000F4E72A290ED129686F
:1001CC00296051F8042B2960002A0F9204D5514262
:1001DC0040F004000F9180B27F1C11E000210F91C0
:1001EC0009E00F99494505D001EB810302EB43016E
:1001FC0030390F917F1C3A78A2F130010A29F0D3E3
:10020C0039782E2903D04FF0FF310E911DE017F8ED
:10021C00011F2A2907D1296829607F1C51F8042B5A
:10022C0029600E9211E000210E9109E00E994945CA
:10023C0005D001EB810302EB430130390E917F1C99
:10024C003A78A2F130010A29F0D3ADF840000FF250
:10025C00BC40397801F00CF808B117F8010B8DF897
:10026C0042009DF84200682802BF39786829622054
:10027C0005D06C2804BF38786C2803D171208DF818
:10028C0042007F1C14A8069017F8014BB4F125000E
:10029C002AD01C3800F0CB80001F022840F2C78007
:1002AC00133800F0EC80093800F0C180801E00F09B
:1002BC005381401E00F02C81401E022840F2B78072
:1002CC00001F00F02581401F00F08280401E00F0CE
:1002DC00D680401E2CD0C01E0BD0801E00F0CF80CC
:1002EC00C01E00F0CC805AE125208DF85000012072
:1002FC005EE19DF842006C282868286014D050F804
:10030C00046B286005960E9C002C04D5304600F03A
:10031C00BFFF044606E022460021304600F0D4FF21
:10032C0000B1841B089444E150F8042B28602FE1A1
:10033C00296829603C2451F8040B29600021CDE97F
:10034C00020114A80590DDE90201069E11B908B955
:10035C000E9AB2B10206120FA0EB02123032D2B2D8
:10036C00631E3A2AA8BF2732000940EA0170090926
:10037C009A5508BF00281C4603D0059AA3199A4227
:10038C00E8D3A0190590C4F13C010E980891814264
:10039C0009DA401A0A904FF6EF71BDF84000084098
:1003AC00ADF8400005E1002840F103819DF84000C4
:1003BC0000F01400102840F0FC800F98079A801A67
:1003CC000A9A801A441A012CC0F2F3800A94F0E0C5
:1003DC009DF8420062281AD0682806D06A280CD0F2
:1003EC006C281CD0712808D019E02868286050F8B7
:1003FC00041B28600D980880DBE02868286050F802
:10040C00042B28600D98C117C2E90001D1E02868BF
:10041C00286050F8041B28600D980870C9E0286803
:10042C00286050F8041B28600D980860C1E028680B
:10043C00C01D20F007022A60D2E9000108322A60B0
:10044C00CDE90201002902D507982D210AE0BDF85B
:10045C004000810702D507982B2103E0C00705D582
:10046C000798202100F80A10401C079014A807993F
:10047C0008180590214602A800F090FB99E09DF821
:10048C0042006C280DD0712818BF6A2809D1286841
:10049C00C01D20F007022A60D2E9000108322A6050
:1004AC0005E02968296051F8040B29600021CDE989
:1004BC0002019DF84200682803D1DDE9020180B2F7
:1004CC000BE0622803D1DDE90201C0B205E074281B
:1004DC0018BF7A2804D1DDE902010021CDE902011F
:1004EC009DF8400000072ED5DDE90201002908BF68
:1004FC00002828D044F02000782824D107983021F7
:10050C0000F80A10401C411C079100F80A401AE040
:10051C009DF84200294600F0FDF8CDE902010029C2
:10052C0002DA07982D210AE0BDF84000810702D5B8
:10053C0007982B2103E0C00705D50798202100F868
:10054C000A10401C079014A807990818059021461A
:10055C0002A800F09FFA2CE09DF842006C2809D00C
:10056C00012007902868286050F8041B28608DF83B
:10057C0050101EE02868286001AA50F8041B28605F
:10058C00ADF804100020ADF806004FF0FF300E90CF
:10059C0002A9404600F0F5F800280AD5ADE0252068
:1005AC008DF85000012007901CB18AF80140022000
:1005BC0007900F980799401A0A99401A0899401AFF
:1005CC000B99401A0999401A0C99441A9DF840004D
:1005DC00400710D420208DF80000002609E00123EC
:1005EC0000AA02A9404600F001FE002840F08580D8
:1005FC00761CA642F3DB079E0DF1500B0AE01BF8AC
:10060C00011B0498C0470028049076D00D98401C1C
:10061C000D90761E002EF2D130208DF800004FF098
:10062C00000B0A9E09E0012300AA02A9404600F033
:10063C00DDFD002861D10BF1010BB345F3DB089E06
:10064C00DDF814B00AE01BF8011B0498C047002821
:10065C00049052D00D98401C0D90761E002EF2D1B5
:10066C0030208DF800004FF0000B0B9E09E00123A9
:10067C0000AA02A9404600F0B9FD00283DD10BF1BB
:10068C00010BB345F3DB05980899099E01EB000BB0
:10069C0009E01BF8011B0498C047049068B30D983F
:1006AC00401C0D90761E002EF3D130208DF80000EA
:1006BC004FF0000B0C9E08E0012300AA02A9404653
:1006CC0000F094FDC8B90BF1010BB345F4DB9DF8B8
:1006DC00400040077FF519AD20208DF80000002662
:1006EC0000E0761CA642BFF610AD012300AA02A9B9
:1006FC00404600F07BFD0028F3D04FF0FF3025B0D2
:10070C00BDE8F08F0000000000000000686A6C7407
:10071C007A4C0000622826D068281DD06A2808D0A0
:10072C006C2827D0712804D0742823D07A280CD0B8
:10073C0020E00868C01D20F007000860D0E9002305
:10074C00083008601946104670470A680A6052F86B
:10075C00040B0A60002170470A680A6052F8040B07
:10076C000A6000B20BE00A680A6052F8040B0A60D7
:10077C0040B204E00A680A6052F8040B0A60C11720
:10078C0070472DE9F44F0D4694B0D5F830B0BBF15D
:10079C00000F804648BF6FF0004B00F0C1FD696B45
:1007AC00401801900FF67420D0E90023CDE9022304
:1007BC0095F83800400702D40198412806D2402011
:1007CC000DF1100A01904FF0000909E000F0AEFDA8
:1007DC005FEA000AF7D14FF0FF3058E1ABEB040BA6
:1007EC00BBF1010FC0F2CD801498018802AA0DF163
:1007FC00010000F0F3FD0028044600F1D5801498A8
:10080C00008810B9641E00F1CF80A345C0F2B980F6
:10081C00686901992218914280F0A180296AC5F873
:10082C0034904042401AA969401A696A401AE96931
:10083C00401AA96AA0EB010995F83800400710D4BA
:10084C0020208DF80000002609E0012300AA29468B
:10085C00404600F0CBFC002840F0A680761C4E45AC
:10086C00F3DB6E6957460BE017F8011BA868C0470D
:10087C000028A86000F09880E86A401CE862761EA8
:10088C00002EF1D130208DF8000000272E6A09E0EF
:10089C00012300AA2946404600F0A8FC002840F09D
:1008AC0083807F1CB742F3DBAE69EF680AE017F870
:1008BC00011BA868C0470028A86075D0E86A401CD6
:1008CC00E862761E002EF2D130208DF80000002751
:1008DC006E6A08E0012300AA2946404600F086FC17
:1008EC00002861D17F1CB742F4DBE868A969EE6986
:1008FC000F180AE017F8011BA868C0470028A86069
:10090C0052D0E86A401CE862761E002EF2D13020EC
:10091C008DF800000027AE6A08E0012300AA2946E2
:10092C00404600F063FC00283ED17F1CB742F4DB4C
:10093C0095F8380040070ED520208DF800000026D1
:10094C0007E0012300AA2946404600F04FFC58BBA3
:10095C00761C4E45F5DB4FF00009C5F81490224685
:10096C0068690DF10101504400F046FD68692018DA
:10097C0068611498801C1490801E008800287FF4F5
:10098C002DAF686B6969401A296A401AA969401A27
:10099C00696A401AE969401AA96A471A95F8380039
:1009AC00400710D400240CE04FF0FF3968E0A86831
:1009BC002021C0470028A860F6D0E86A401CE862F5
:1009CC00641CBC42F3DB6B6952462946404600F07E
:1009DC000DFC0028E8D12C6A002609E0A86830211B
:1009EC00C0470028A860DFD0E86A401CE862761C8B
:1009FC00A642F3DBAB69EA682946404600F0F6FBF9
:100A0C000028D1D16C6A002609E0A8683021C047C3
:100A1C000028A860C8D0E86A401CE862761CA64290
:100A2C00F3DBE868A969EB690A182946404600F02F
:100A3C00DDFB0028B8D1AC6A002609E0A86830219B
:100A4C00C0470028A860AFD0E86A401CE862761C5A
:100A5C00A642F3DB95F8380040070DD5002409E0D9
:100A6C00A8682021C0470028A8609DD0E86A401CD7
:100A7C00E862641CBC42F3DBC5F81490C5F83490F2
:100A8C0004A882451CBF504600F0F2FC484615B045
:100A9C00BDE8F08F2DE9FA4E05460A462F696F2AFC
:100AAC0008BF082405D041F02000782814BF0A2480
:100ABC0010243C26D5E90001642A18BF692A814616
:100ACC008A4605D1002903DAD9F100096AEB4A0AF2
:100ADC00BAF1000F08BFB9F1000F0CD1286B50B957
:100AEC00082C36D195F83800000732D530203B263B
:100AFC0087F83B002DE0E31748465146224600F0AC
:100B0C00F7FCA4FB0023A9EB02023032D2B2A6F10F
:100B1C00010B3A2A5E4603DB9DF80030513B9A18D4
:100B2C0081465FEA010A0BF8072008BFB9F1000FF4
:100B3C0003D0E868F1198842DDD3082C09D195F867
:100B4C003800000705D5F05D302802D0761E302025
:100B5C00F055C6F13C00A861F119E960296B884297
:100B6C0008DA081A28624FF6EF71288F0840288798
:100B7C00BDE8F38E00290ED595F8381001F014015C
:100B8C00102908D1696B6A69891A2A6A891A0E1A9E
:100B9C00012EA8BF2E62BDE8F38E00002DE9F24FA6
:100BAC0004468EB0D4E90001CDE9020104AF9DF8F2
:100BBC00380040F0200BBBF1610F0AD0206B0028ED
:100BCC0048BF062004D408BFBBF1670F01D1012038
:100BDC0020636168C1F30A5040F2FF7290421CD14D
:100BEC00080304BF2068002809D10320A0619DF8E8
:100BFC00380061381A2836D30FF2346108E003202C
:100C0C00A0619DF8380061381A2829D30FF21861B9
:100C1C00E068032200F0F0FBBEE1012816DA204662
:100C2C0000F0DDFC012811DB00250020BBF1610F79
:100C3C0020D1E168302201F8012B4A1CE2609DF8BA
:100C4C003820612A0CBF782258220FE0626840F2EB
:100C5C00FE3161F31E52451A62604FF0FF30E5E73A
:100C6C000FF2C051D4E70FF2C451D1E70A70616999
:100C7C00891C616110B90026002584E1BBF1610F6C
:100C8C0040F09780206BD4E900AB00284CBF2126A4
:100C9C00461CDDE902010022002300F0C1FC36B243
:100CAC003ABF8BF00040CDE902A0CDE902AB06F1D2
:100CBC0001082D1F8DF810200DF1110700E0C71D44
:100CCC00B8F1010F33DBDDE902010022002300F053
:100CDC00BFFC2CD21C2102A800F0D2FCDDE90201E1
:100CEC0000F056FDA8F10708B8F1010F814609DBA9
:100CFC0000F07AFD02460B46DDE9020100F08CFDA6
:100D0C00CDE90201F81D072105E009F00F0200F8FA
:100D1C00012D4FEA2919B9F1010F01DB491EF4D558
:100D2C00491E5CBF002200F8012DF9D5C7E70DF173
:100D3C001100391AB142B8BF0E4636B230000DF16F
:100D4C0011072FD4884206DA04A9411849780829DA
:100D5C00A8BF0F2100DA002104AA821800E0761E39
:100D6C0012F80139401E8B42F9D00F2904D104A985
:100D7C0041184A78521C4A70002802D504AF761CE0
:100D8C002D1D36B2701E0DD4C1190A783032D2B274
:100D9C003A2A03DB9DF838303A3B9A18401E01F88A
:100DAC000129F2D5206B002840F1ED80701E2063E4
:100DBC00E9E0DDE902010022002300F031FC3CBF38
:100DCC0081F00041CDE902012DB247F29750684302
:100DDC004B49DFF8309190FBF1F52DB2C5F1070AC4
:100DEC00BAF1010F90461CDBDDE902675FEACA70BD
:100DFC0007D542464B463046394600F0CDFD0646F7
:100E0C000F464046494642464B464FEA6A0A00F0B6
:100E1C00C3FDBAF1000F80468946E7D1CDE90267E0
:100E2C0024E0CAF1000A0026374F14E05FEACA70CA
:100E3C0007D542464B463046394600F0ADFD0646D6
:100E4C000F464046494642464B4600F0A5FD4FEA48
:100E5C006A0A80468946BAF1000FE7D1DDE9020142
:100E6C0032463B4600F06AFECDE90201BBF1660F4B
:100E7C00216BDFF898900CBF05F10A00062046188C
:100E8C00142EA8BF132630208DF810000DF1110779
:100E9C00012E3DDBDDE9020100F090FC07F10801B9
:100EAC0004220A23B0FBF3F303EB8307A0EB470008
:100EBC00303001F8010C0A20B3FBF0F000EB800796
:100ECC00A3EB47033033521E01F8023DE9D1083E33
:100EDC00012E01F10807DBDBDDE9020100F06EFCFD
:100EEC0000F08CFC02460B46DDE9020100F094FC9C
:100EFC0000224B4600F050FDCDE90201CAE700BFCD
:100F0C00A0860100000024400000F03F84D79741E8
:100F1C000DF11100381A0DF1110702E0401E6D1E83
:100F2C007F1C39783029F9D0BBF1660F02D12DB274
:100F3C00691C04E0BBF1650F0CBF01210021226B81
:100F4C008E1836B2B042B8BF064636B231001AD44B
:100F5C00814204DAC85D3528A8BF392000DA302078
:100F6C00CA19521E00E0761E12F80139491E83423E
:100F7C00F9D0392802D1C85D401CC855002902D5CA
:100F8C007F1E761C6D1C2DB29DF83810009533B267
:100F9C003A46204600F003F80FB0BDE8F08F2DE97B
:100FAC00F04786B006468A4690461D4600F00FFF75
:100FBC00012D406A376B90F8009002DA01250FF290
:100FCC0074284AF02000BDF93840662808BF641C1C
:100FDC0012D0672876D114F1040F79DBBC4277DA92
:100FEC0096F83800641C000702D4BD42B8BF2F46E7
:100FFC0024B23F1B48BF002724B2F068B169012C12
:10100C0021DA4A1C30230B54012F03DA96F83810DE
:10101C00090702D502F80090521CE742B8BF7C4287
:10102C0024B2E7196142AF42B2617162B8BF3D466A
:10103C00B3692DB2F5612A464146181800F0DCF967
:10104C00781BB062BBE00818A54216DA2A46414666
:10105C0000F0D2F9B1696918601B012FB16170629F
:10106C0003DA96F83800000705D5F06801F800900F
:10107C00F069401CF061B762A1E02246414600F0E5
:10108C00BBF9B06920182D1B012F03DA96F8381024
:10109C00090703D5F16800F80190401CB0612DB22E
:1010AC00AF42B8BF3D46F068B3692DB22A4604EB97
:1010BC000801181800F0A0F9B0692818B061781B65
:1010CC0070627CE0BAF1610F14D14FF0700A16E037
:1010DC00BD4204DA96F83810090758BF2F467F1E18
:1010EC0048BF0027BAF1670F14BF4FF0450A4FF005
:1010FC00650A04E0BAF1410F08BF4FF0500AB1691C
:10110C00F06818F8013B0B544A1C012F05DA96F8CD
:10111C003810090758BFB26115D502F80090531C5E
:10112C00012FB3610FDB6D1E2DB2AF42B8BF3D4630
:10113C002DB22A464146181800F05EF9B0692818FD
:10114C00B061781B7062F068B1690918200081F8F1
:10115C0000A004D42B20487001F1020804E02D22D9
:10116C004A7001F102086442002502AF08E00A222D
:10117C0000A800F045FE019807F8010B6D1C009CBF
:10118C0021B20129F3DA022D06DA4AF02000652893
:10119C0004BF302008F8010B4DB9302008F8010BC2
:1011AC0007E06D1E02A8285C303008F8010B012DF9
:1011BC00F7DAF068B1690818A8EB0000F06196F84E
:1011CC00380000F0140010280DD17069B1690818AE
:1011DC00716A0818F1690818B16A0818716B8842AD
:1011EC00BCBF081A306206B0BDE8F087F8B50446FB
:1011FC000D4616461F46002004E0E86A401CE862D3
:10120C007F1E002047B116F8011BA868A0470028D4
:10121C00A860F2D14FF0FF30F2BD000000000000DA
:10122C00000000006E616E004E414E00696E66005B
:10123C00494E46003000F8B504460D4616461F468A
:10124C0000F0E6FD3B4632462946204601B0BDE89B
:10125C00F04000F0F4BD8268521C8260426832B1EA
:10126C000268531C036011704168491E416070474D
:10127C000278C9B28A421AB11CBF10F8012FF9E7E3
:10128C0018BF002070470268531C03601170704730
:10129C0000F10103810704D010F8011B89B181070B
:1012AC00FAD10268B2F10131914311F0803F04BFD1
:1012BC0050F8042FF6E710F8011B11B110F8011BC0
:1012CC00FBE7C01A70470100C9B2830706D0521E53
:1012DC0022D310F8013B9942F7D11FE0083A13D3FF
:1012EC0002F1040241EA012141EA014150F8043BB8
:1012FC00121F21BF4B40A3F1013C2CEA030C1CF044
:10130C00803FF3D0C9B2001F083210F8013B521EC7
:10131C0028BF91EA030FF8D818BF0120401E704770
:10132C0080B500F075FD012002BD0A0070B50546C0
:10133C0005F10F00C408C046C046E400A54232D2F5
:10134C00082C04D2082402E0083000F091F822485E
:10135C00026811000CD1011D0A6802B31368A34284
:10136C0038BF111DF8D310E01D68A5420DD2191D10
:10137C000B68002BF8D11268011D00E0191D0B68D9
:10138C0093420CD01D68A542F8D361B10D682A6850
:10139C00A2F10803A3420AD26A680A600FE000F0C7
:1013AC0071FD0028D0D1C046C046002070BD631925
:1013BC000B60121B6E685E600B681A602C6009680B
:1013CC0000291DBF4A68002A091D00210160C04682
:1013DC00C04605F1080070BD8C39002070B504467C
:1013EC000D46164600F014FD324629462046BDE84F
:1013FC00704000F017BD100062B38B0708D0521E6E
:10140C0011F8013B00F8013B00F024808B07F6D16A
:10141C00830740F0208000BF103A07D330B4B1E806
:10142C003810103AA0E83810F9D230BC530724BF5A
:10143C00B1E80810A0E8081044BF51F8043B40F88C
:10144C00043BD20724BF31F8022B20F8022B44BFF7
:10145C000B7803707047083A07D3B1E80810083AC4
:10146C0040F8043B40F804CBF7D25307E4E7010003
:10147C0000B9704738B5A0F108042068082833D3A8
:10148C0010F0070F30D1C046C0461848416809B16A
:10149C008C4203D26160446017E019464B680BB173
:1014AC00A342FAD30B685D18AC421BD3A54204D1FE
:1014BC002268D2180A600C4607E04A681AB1236801
:1014CC001B199A420ED362604C60616851B122685C
:1014DC0013198B4206D10023036008688018206022
:1014EC0048686060C046C04631BD00008C390020A1
:1014FC001B4213D1094236D12AB18446B0FBF2F01B
:10150C0002FB10C2704700F0D3BCFCD300220023B6
:10151C0070470B000200002100207047904271EBD5
:10152C00030CF6D370B5B1FA81F4B3FA83F52C1B26
:10153C00A340C4F1200532FA05F63343A2405FF014
:10154C000046E64002E05B085FEA3202841A71EB67
:10155C00030524BF204629467641F4D302000B0034
:10156C003000002170BD012ACFD970B5140C20D0E9
:10157C00B1FA81F4B2FA82F5C4F120046419B4F121
:10158C002006D6D3B2405FF00044F440002502E0C0
:10159C0052085FEA3303C61A71EB020E24BF3046C1
:1015AC00714664416D41F3D302000B002000290009
:1015BC0070BD0C46B1FBF2F102FB11452D0445EA5E
:1015CC001045B5FBF2F402FB145580B240EA054518
:1015DC00B5FBF2F002FB105240EA044070BD30B48F
:1015EC00436803F0004201211B031B0B436004BF43
:1015FC000368002B08D10DE00368DD0F45EA4404B5
:10160C0044605B000360491E4468E302F4D5230385
:10161C001B0B436043681A434260084630BC70475A
:10162C004FF4001C1CEB410F94BF1CEB430F09E063
:10163C0041EA030C50EA4C0C52EA0C0C03D29942CE
:10164C0008BF9042704714BF8B4282427047200003
:10165C004FF4001C1CEB410F94BF1CEB430F09E033
:10166C0041EA030C50EA4C0C52EA0C0C03D28B42AC
:10167C0008BF8242704714BF9942904270474001A4
:10168C0070B504460D466068C0F30A5040F2FF7115
:10169C00884207D16068000304BF2068002817D077
:1016AC00022070BD20B92046FFF799FF012868DAA7
:1016BC00012D0FDB40F2FF71091A8D420AD36068CD
:1016CC00002847BF0020304900203049C4E9000100
:1016DC00012070BD4142A942616806DA6FF31E51C8
:1016EC00401941EA0050606042E0401E63684519B1
:1016FC00012205F1350062F31F53352801F000413A
:10170C00636003D361600020206070BD002215F17E
:10171C001F0F04DA226823600020203560606842C5
:10172C0014D0521E25689241C0F12003D2439D4033
:10173C0045EAD272256825FA00F6656805FA03F3C6
:10174C0033432360636823FA00F5656060680843DF
:10175C00B2F1004F606003D80DD12078C0070AD5D4
:10176C002068401C2060206828B96068401C6060BC
:10177C004FF0FF3070BD6068884204BF20680028BD
:10178C00F6D1002070BD00BF0000F0FF0000F07F1C
:10179C00F446400D40EAC120490006D200F014F88E
:1017AC00004248BF6FF00040604700F00DF84FF06A
:1017BC00004188428CBF084640426047400D40EAD9
:1017CC00C120490080F00D8040F00040490DA1F58A
:1017DC008061491C05D4D1F11F0154BFC840C0170A
:1017EC0070474FF000007047010040F10980F4464B
:1017FC00404200F005F851F000416047010000BF85
:10180C0009D0B0FA80F18840C91CC1F58461090582
:10181C0001EBD02140057047F0B44FF0004591EA40
:10182C00030F44BF6B4000F045BB00BF841A71EB43
:10183C00030604D26E40001BB141121973414FF4E0
:10184C00001C1CEB410F34BF7CEB430684E00C0DF9
:10185C00A4EB1356362E7DDC012E43DC45EAC32364
:10186C0043EA525312BFD20292025B08240545EAA6
:10187C00C12141EA5051D2EBC020994125D407D166
:10188C00B0FA80F610FA06F164D00020203608E099
:10189C00B1FA81F6B140C6F1200220FA02F21143EE
:1018AC00B0404FEAF474B4EB465434F001064FEAFE
:1018BC0074040AD8D6F50016760D04F00044F040F6
:1018CC0061FA06F25040F1404840C00A40EA4150EB
:1018DC0021F0004128BF5FEA500550F1000044EBB5
:1018EC00D12137E045EAC323DB0A45EAC121C90A05
:1018FC00B6F120050EDD42EA0242120CC5F12006BB
:10190C0003FA06F6EB4042EA06056D42984161F196
:10191C0000010DE062FA06F5F240554063FA06FC50
:10192C0082EA0C02F3405A406D42904161EB030194
:10193C0011F4801F05D1641E620502D06D00404178
:10194C00494121F48011430875F1004350F1000026
:10195C0041EB0451F0BC70471CEB410F15D223F046
:10196C00004352EA43060BD04FEA4C0CBCEB410F40
:10197C0004D80C0D661E342EB7DDEBE7801A9941A6
:10198C0050EA410608BF0021E4E708BF1CEB430FF7
:10199C0028BF6FF00001DDE7B0B581EA030C0CF055
:1019AC00004C40F2FF7515EA11541DBF15EA135790
:1019BC00AC42AF4239E0E41923EA455343F48013B7
:1019CC00C90241F0004141EA505EC7021100A7FB79
:1019DC00020200284FF00000EEFB01204FF0000146
:1019EC00E3FB072118BF42F00102401800214941D6
:1019FC00E3FB0E01A4F580640F0302D252004041B8
:101A0C00494154F101046CDD470872F1004250F178
:101A1C00000051EB0451A1F580115CBF41EA0C01AF
:101A2C00B0BD4CEA05510020B0BD05EA1357AC42DD
:101A3C0014BFAF4241E050EA410E1CBF52EA430EC4
:101A4C0002E061460020B0BD24423C441BD15FEA59
:101A5C00070EF6D0090302BF01460020AEF1140EAA
:101A6C00B1FA81F7AEEB070401FA07FE0C37C7F1A8
:101A7C00200100FA07F7C8404EEA000E23EA45534E
:101A8C0043F48013A2E733F00043B3FA83F704BFA7
:101A9C00B2FA82FE77440B3FE41BB7F1200E2FBF46
:101AAC0002FA0EF3BB40C7F1200E22FA0EFE38BF2D
:101ABC0043EA0E03BA40641C82E750EA410E14BF9D
:101ACC0052EA430E6FF000014FF4001717EB430F6F
:101ADC008ABF194617EB410FB5E74CEA05510020B8
:101AEC00B0BDD4F10104B4F120070FDAC4F1200722
:101AFC00520828BF42F0010210FA07F501FA07F765
:101B0C00E1BF2A43E0403843E1400FE0352C98DC3C
:101B1C00C7F1200452EA400220FA07F218BF42F043
:101B2C00010231FA07F0A1400A43002172F1004290
:101B3C0050F1000051EB0C01B0BD01002DE9F0415A
:101B4C0040F2FF7581EA030C0CF0004C15EA1154BD
:101B5C001DBF15EA1357AC42AF42E9E0BC41C1F3DB
:101B6C001301C3F31303801A994143F4801304D275
:101B7C00641E4000494180185941C90241EA505144
:101B8C00B1FBF3F603FB1611A2FB0675D7EBC020D5
:101B9C00A94102D2761E80185941C90241EA50511E
:101BAC00B1FBF3FE03FB1E11A2FB0E75D7EBC0209D
:101BBC00A94103D2AEF1010E80185941890241EAC4
:101BCC009051760546EA8E2EB1FBF3F603FB161107
:101BDC00A2FB0675D7EB8020A94102D2761E801895
:101BEC005941C90241EA50514EEA060EB1FBF3F6D7
:101BFC0003FB1611A2FB0675D7EBC020A94102D23C
:101C0C00761E80185941C90241EA5051B1FBF3F7D5
:101C1C0003FB1711A2FB0735D3EBC020A94167F1D9
:101C2C0000070CBF004247F0010766F3D5274FEAC7
:101C3C001E31B80814F5806414DDBD0775F100423F
:101C4C0050EB0E5051EB045111F5801F5CBF41EA73
:101C5C000C01BDE8F0814CF07F6141F0E0410020C7
:101C6C00BDE8F081BD076D0840EA0E5041F48011CB
:101C7C00D4F10104B4F120060ADAC4F12006020002
:101C8C00E04001FA06F3E1401843B24015430EE080
:101C9C00342C14DCC6F1200445EA40056D0820FA0A
:101CAC0006F2154321FA06F0A1400D43002175F10F
:101CBC00004250F1000051EB0C01BDE8F081002016
:101CCC005FEA0C01BDE8F081CFB992185B41B3FA21
:101CDC0083F704BFB2FA82F6BF190B3FB7F12006A7
:101CEC002FBF02FA06F3BB40C7F1200622FA06F614
:101CFC0038BF3343BA401CB1E419641E2FE77F424E
:101D0C0031F00041B1FA81F404BFB0FA80F6A419A5
:101D1C000B3CB4F120062FBF00FA06F1A140C4F130
:101D2C00200620FA06F638BF3143A0403C1B16E7CC
:101D3C00AC421ABF05EA1357AF4214E050EA410611
:101D4C001CBF52EA4306BFE750EA410730466146E2
:101D5C001CBF41EA0551BDE8F08152EA430C08BFB3
:101D6C00C143BDE8F08100204FF4001616EB410F83
:101D7C0098BF16EB430F08BF16EB410F24BFC143AE
:101D8C0005E016EB430F0CBF61464CEA0551BDE86C
:101D9C00F0811C0080B5134800F0F6F80FF24C02ED
:101DAC000FF244010160426241600FF2440282630F
:101DBC0081600FF24402C160016141618161816205
:101DCC00C16201634163C2630164416401BD10B52A
:101DDC00044800F0D9F80446206808B9FFF7DAFF88
:101DEC00204610BD00000020000000002E00000066
:101DFC0066616C736500000074727565000000000C
:101E0C0091FBF2F303FB1211C0E90031704714008F
:101E1C0080B5DFF80C0000F0B7F8806902BD000057
:101E2C009000002030B430B90FF24800D0E90045E2
:101E3C00C2E900451BE00170012030BC704730B492
:101E4C0031B90FF23800D0E90045C3E900450EE086
:101E5C001AB930BC6FF00100704708B10A780280E3
:101E6C000978481E804130BCC043C00F7047002029
:101E7C0030BC7047000000000000000000000000B3
:101E8C00000000000749086808B1002070470648A8
:101E9C00C008C00008600549C908C900091A0160DA
:101EAC00704700BFC0390020CF3B0020C83B00204A
:101EBC0070470200841A71EB030603D2001BB14178
:101ECC00121973414FF4001C1CEB410F34BF7CEB17
:101EDC00430443E00C0DA4EB1356352E50DC45EABD
:101EEC00C323DB0A45EAC121C912B6F120050DDD79
:101EFC0063FA05F6EB4086EA0305124218BF45F07B
:101F0C000105C01851F100010CD213E062FA06F57C
:101F1C00F2405540F3415A40B340F3405A408018C8
:101F2C00594107D349085FEA30005FEA350528BFFD
:101F3C0045F0010501F58011420875F1004250F1A0
:101F4C00000041EB0451F0BC4FF4001C1CEB410FA2
:101F5C0038BF70470020090D090570471CEB410F75
:101F6C0010D252EA43060BD0BCEB410F05D80C0D36
:101F7C00AB43661E342EB5DD02E0AB4380185941ED
:101F8C00F0BC7047F0BC704770470500037A437192
:101F9C000172427201680FF28C4000F04FBB8171EC
:101FAC00C27170470121817101724FF47A71C16065
:101FBC00012101710020704710B5040011D0207A66
:101FCC00014601290FD1C2A02060C2A06061E16866
:101FDC0089B2206800F0FAF8022200212046FFF7AF
:101FEC00D5FF002010BD02290FD10FF24440206014
:101FFC00B8A06061E16889B2206800F0E7F80322BC
:10200C0000212046FFF7C2FFEBE7032914D1002380
:10201C0003221946084600F074FBADA02060ADA069
:10202C006061E16889B2206800F0D0F804220021D8
:10203C002046FFF7ABFFD4E704290FD10FF2FC3099
:10204C002060A4A06061E16889B2206800F0BEF84D
:10205C00052200212046FFF799FFC2E705290FD181
:10206C000FF2E43020609BA06061E16889B22068C7
:10207C0000F0ACF8062200212046FFF787FFB0E7FE
:10208C0006290FD10FF2CC30206092A06061E1687C
:10209C0089B2206800F09AF8072200212046FFF749
:1020AC0075FF9EE7072915D10FF2B430206089A087
:1020BC006061002303221946084600F022FBE16808
:1020CC0089B2206800F082F8082200212046FFF730
:1020DC005DFF86E7082910D10FF2903000F0AEFAC0
:1020EC00002202212046FFF751FF04220221204644
:1020FC00FFF755FF0120207473E700287FF471AFC0
:10210C00204600F073F8002010BD00B5CBB000A83D
:10211C004FF4967100F028FB00A800F087FC002813
:10212C0012D00FF2643100A800F028FD00280BD06B
:10213C0000A90FF25C3000F081FADFF8D82200A978
:10214C0002F14C0000F0C8F800204BB000BDB248C2
:10215C00007C012803D100210FF24C3036E070478F
:10216C0080B500280BD08179042908D0012902D12F
:10217C00FFF722FF03E0022901D1FFF7C6FF002081
:10218C0002BD1FB503A802900FF250300190002041
:10219C000090A24B02224FF4967100F0F1FC03A9BF
:1021AC0000F036FD9C4C2046FFF7FCFE0FF21C3174
:1021BC000FF2383000F042FA2046FFF7D1FF01232E
:1021CC0000221146084600F09CFAF5E738B50446A3
:1021DC000D46FFF75DF8214600F0E3FB2B4600228D
:1021EC001146084600F08DFA002032BD30B5CBB058
:1021FC00044600A84FF4967100F0B6FA884D286892
:10220C00401C28604EF66121884242D200A800F0A2
:10221C000DFC002859D000A90FF2E02000F00EFAB6
:10222C00616900A800F0AAFC002810D0607A207226
:10223C000020207121680FF2D42000F0FFF90FF27A
:10224C00DC2000F0FBF900202860A0203EE00FF21B
:10225C00EC2100A800F092FC002836D060792072A6
:10226C00227921680FF2DC2000F0E8F92079401C7B
:10227C002071C0B2032828DB0020207109202072B5
:10228C000020286021680FF2E42000F0D7F9F0203C
:10229C001CE00020286060792072227921680FF2FE
:1022AC00A42000F0CBF92079401C2071C0B2042886
:1022BC000BDB0920207200202071286021680FF2AE
:1022CC00C02000F0BBF9FF2000E0FF204BB030BD78
:1022DC002B2B2B004F4B00002DE9F04104460846F8
:1022EC0015460026002803D02C21FEF7C1FF461C02
:1022FC00304600F007FE074639460FF2942000F0F6
:10230C009DF9002F03D10FF29C2000F097F9314674
:10231C000FF2B82000F092F94FF0000808E018F81E
:10232C00062041460FF2B42000F088F908F10108AC
:10233C00B845F4D3002E10D02B463A4631462046F1
:10234C0000F00DF8002C08D00FF2A02000F076F968
:10235C002046BDE8F04100F0D1BEBDE8F081F8B5F3
:10236C0004460E4617461D46307820707078B178BA
:10237C0041EA00206080F0782071307960717079CA
:10238C00A071B079E071F279227206F1080104F1C2
:10239C000900FFF731F8B819801E04F149010278E1
:1023AC000A7040784870207828706088688020799E
:1023BC00287160796871A079A871E079E87105F1EC
:1023CC0049000A78027049784170002506E0281906
:1023DC00417A0FF22C2000F031F96D1C207A8542E5
:1023EC00F5DB0BA5284600F029F9002608E030198A
:1023FC00427D06F10C010FF2102000F01FF9761C43
:10240C00102EF4DB2846BDE8F24000F017B90000AE
:10241C000D0A000034360020F83800205B2100083B
:10242C009C39002025733A53454E440D0A00000098
:10243C0041542B5352530D0A0000000041542B4DB4
:10244C004F443D300D0A000041542B434C413D4359
:10245C000D0A000041542B4A4F4E0D0A000000009B
:10246C0041542B524A4E0D0A00000000454E5F4C61
:10247C004F52414F50454E5F454E442069732045A5
:10248C004E442121210D0A002B524356000000001E
:10249C004C6F63616C526563764D657373616765F0
:1024AC003A25730D0A00000041542B5458483D3115
:1024BC00302C3541323731303038464633363030B7
:1024CC003030413343410D0A000000004170705F11
:1024DC004C4F52415F5441534B0000004C4F524102
:1024EC005379737469636B546D7200005B25735D73
:1024FC0020656E7465722E0D0A00000052656376BD
:10250C0044656275673A25730D0A000025733A73AA
:10251C007563636573730D0A00000000456E746586
:10252C007220546865204E657874204F7065726116
:10253C0074652053746174650D0A00004552524F46
:10254C0052000000212121417474656D7074206566
:10255C0078637574653A2573202D2D3E636F756E07
:10256C00743D25642121210D0A00000025733A4E8B
:10257C006F20526573706F6E73652121210D0A00F7
:10258C0025733A54696D656F75742121210D0A000C
:10259C004C6F5261646174614C656E203D20256402
:1025AC000A00000043532053657276657220536510
:1025BC006E642044617461206973206E6F742048CE
:1025CC0045582121212121210D0A000054656D70EF
:1025DC004D7367203D2025730A0000004D53475B67
:1025EC0025645D203D2025780D0A00004C4F52419A
:1025FC00205061636B20506F73740D0A0000000053
:10260C0025303258200000007061636B65742D3EDC
:10261C00646174615B25645D203D20253032580D6A
:10262C000A00000010B582B0234C00AB40F204420B
:10263C000121201D00F0D8FD206013BD0EB478B52B
:10264C0004461D4D00A9286800F002FE060017D0B4
:10265C0005AB224640F2044100F052FEC6F80004DD
:10266C00002804D13146286800F00CFE08E0014631
:10267C00C9B2304600F007F83146286800F002FE77
:10268C0071BC5DF810FBF8B504460D460B4E4021AD
:10269C00304600F0D7FE00270AE0395D304600F0E6
:1026AC00C2FE4021304600F0C6FE0028F9D07F1C47
:1026BC00FFB2AF42F1D3F1BDA01E00200048004094
:1026CC0070B5044624480078002819D1002C17D086
:1026DC0000F0E8FE214909682E318A79204BD55C3F
:1026EC00CE79B543D55404D11E4A13780D7AAB4339
:1026FC0013700C8000F0DAFEBDE8704001F017B9E1
:10270C0070BD70B5144C2478002C01D0552070BDD0
:10271C004FF47A744FF46165C1EB0116B10005FBFF
:10272C000010101804FB03F12246B1FBF2F104FB7C
:10273C000010040C80B2FFF7C3FF08E04FF4004018
:10274C00FFF7BEFF4FF40040FFF7BAFF641EA4B2C0
:10275C00002CF3D1002070BD5C18002070180020F4
:10276C006418002060180020002201F033BA100019
:10277C00DFF8BC1308707047DFF8B40300787047BB
:10278C0038B504462068DFF8AC13884204D1012127
:10279C00DFF8A40301F089FAA068ADF80000182056
:1027AC008DF8030003208DF8020000A9606801F089
:1027BC002BFAE068ADF8000004208DF8030003202C
:1027CC008DF8020000A9606801F01EFA2068DFF89D
:1027DC006C1388423BD14020ADF8000010208DF8DE
:1027EC00030003208DF80200DFF8544300A92046B3
:1027FC0001F00AFA2020ADF8000010208DF803003B
:10280C0003208DF8020000A9204601F0FDF94FF4D9
:10281C008070ADF8000010208DF8030003208DF8B7
:10282C000200DFF8205300A9284601F0EDF94FF41F
:10283C008071284601F035FA4021204601F033FA28
:10284C002021204601F02DFA0120FFF791FF31BD28
:10285C0000B585B0016900910021ADF80C100C2178
:10286C00ADF80A100021ADF80810019100A900681C
:10287C0000F064FD05B000BD10B582B004464FF405
:10288C00A06001F041FA607D8DF80000AE4801684F
:10289C000A468DF80120491C01600A468DF8022079
:1028AC00491C016001208DF8030000A801F031FAE9
:1028BC00012240F22551206800F08EFDA169207D97
:1028CC0001F07DFA207D01F073FA0121206800F0FF
:1028DC0077FD4021206800F0B5FD13BD10B59B4C71
:1028EC004FF4807204F10C0104F5867001F030FB9A
:1028FC004FF4807204F5907104F50870BDE8104037
:10290C0001F026BB10B50446FFF73AFF2046FFF74F
:10291C009FFF2046BDE81040AEE710B58C4C20461A
:10292C00FFF7F0FF04F13800FFF7ECFF04F11C0097
:10293C00FFF7E8FFFFF7D2FFBDE81040FFF772BECC
:10294C0070B504460D4605F58076304601F0BFFAA9
:10295C000028204607D000F06AFD0146C9B2304677
:10296C0001F0E4FA01E000F062FD2021204600F0C5
:10297C0062FD0028E9D170BDF8B504460D46164637
:10298C0000270AE08021204600F055FD0028F9D0F0
:10299C00795D204600F047FD7F1CBFB2B742F1D3F2
:1029AC00F1BD80B5012808DB002906D0024692B2A1
:1029BC006848FFF7E1FF012002BD002002BDF8B519
:1029CC000446624D05F58676304601F076FA07002E
:1029DC000DD02868401C2860C82808D33A462146E8
:1029EC00304601F08EFA002028603846F2BD0020F7
:1029FC00F2BD70B504460D46FFF7E1FF0646AE4248
:102A0C0012D30FF26010FFF719FE002505E0295DC7
:102A1C000FF26010FFF712FE6D1CB542F7D343A006
:102A2C00FFF70CFE002070BD012070BDF8B5044608
:102A3C00464D05F50876304601F03FFA07000ED0FA
:102A4C00A868401CA860B0F5FA6F08D33A46214636
:102A5C00304601F056FA0020A8603846F2BD00203E
:102A6C00F2BD38B500F01EFD3B490A78521C0A70C5
:102A7C0000F01CFD314C40F225552946204600F053
:102A8C00E4FC00280ED02946204600F002FD334914
:102A9C002046FFF755FF204600F0C9FC01462548AB
:102AAC0000F0C1FCBDE8314000F093BD38B500F03A
:102ABC00F9FC29490A78521C0A7000F0F7FC254CE5
:102ACC0040F225552946204600F0BFFC002807D0CF
:102ADC002946204600F0DDFC21492046FFF730FF57
:102AEC00BDE8314000F075BD38B500F0DBFC1A498B
:102AFC000A78521C0A7000F0D9FC0E4C40F2255595
:102B0C002946204600F0A1FC00280AD02946204680
:102B1C0000F0BFFC204600F08AFC0146074800F09C
:102B2C0082FCBDE8314000F054BD00000D0A0000ED
:102B3C0059010020004800401000140000380140EA
:102B4C00000C014000080140A0390020E8250020BD
:102B5C00FC000020004400405C180020F4250020FC
:102B6C000827002053656E736F7220526563763AA6
:102B7C0000000000253032582000000001F0F3B9AD
:102B8C002DE9F0470746884691469A460A9CDFF89D
:102B9C0024030078002803D08B20207000202BE029
:102BAC0000F045F900F079F8050005D100F047F97F
:102BBC008620207000201FE005F1300001214170BB
:102BCC002E1D7761C6F8188080F80090C6F800A01A
:102BDC0008987060099F002F09D0384600F0E2FE7B
:102BEC0010280BDA394605F1200000F0CCFE00F07D
:102BFC0026F9002020702846BDE8F0872320307786
:102C0C00002070778C20207000F019F92846F3E72B
:102C1C0038B505460C462878642803D089202070E6
:102C2C00002032BDDFF88C020078002803D08B2006
:102C3C002070002032BD00F0FAF895F83100002821
:102C4C001BD002280FD00ED303281CD1284600F02D
:102C5C00CBF80021284600F09EF800F0F0F8002098
:102C6C002070012032BD0021284600F094F800F0BD
:102C7C00E6F800202070012032BD00F0E0F887203B
:102C8C002070002032BD00F0DAF88D20207000207A
:102C9C0032BD8A48006801F015BA894908680028D5
:102CAC0001D100207047C2680A600021C160016137
:102CBC0084490A88521C0A8083490A88521E0A8059
:102CCC00704738B5814C4FF45071204600F026FE09
:102CDC0040217F4800F022FE204604F134010022FE
:102CEC000CE06425057000251D74C1603F2580F83B
:102CFC00205000251D7034303431521C00F121035A
:102D0C000F2AEEDB6421017000211974C1603F2190
:102D1C0080F8201000201870674908606949088005
:102D2C00102069490880664804606A4C012001F053
:102D3C0031F92060614D002001F02CF9286000AAC7
:102D4C000FF29811206800F0FDFB00AA0FF2981109
:102D5C00286800F0F7FB00F001F831BD00B587B032
:102D6C005D4803210491002103918021029101907F
:102D7C004FF6FD7100911D2300F5FE7200210FF23C
:102D8C00C90001F0CBF905AA0FF268111D2001F062
:102D9C00AEFA07B000BD032280F83120012902D021
:102DAC008169002905D1C169434A126851184161F2
:102DBC0003E0414A1268511841614549027D02F015
:102DCC00070201EBC2010A68002A086004D1002244
:102DDC00C26001228A8004E0C26010618A88521CA1
:102DEC008A8000210161704710B400F10C01384A4F
:102DFC000B7A03F0070302EBC3020B6814688442DE
:102E0C0005D11C00146007D00023236104E04C683A
:102E1C00E360002B00D01C61012380F831300020CE
:102E2C00086048609088401E908010BC704780B548
:102E3C0000AA00212748006801F0CEF801BD254802
:102E4C00006801F03FB9000070B582B01A4C01E087
:102E5C00FFF7F5FF00AA00211848006801F0BCF844
:102E6C00FFF7E5FF2068401C2060194900F00700BF
:102E7C0051F83060002E02E0022141702E00E7D0A4
:102E8C00301D8568216802699142F7D102681100F2
:102E9C0002D04168304690473046FFF7A5FF06F157
:102EAC00300001780229E7D101213046FFF773FF8A
:102EBC00E4E700005C180020B0390020B83900208D
:102ECC00BC390020C43900209A390020A8220020E7
:102EDC00B8380020B43900201C2E00204F532D543C
:102EEC006D724C6F636B00004F532D546D725369B0
:102EFC006700000075432F4F532D494920546D72C4
:102F0C0000000000002102785A2A02D008467047BF
:102F1C00491C10F8012BCA2AFAD1C9B2481C7047B7
:102F2C0010B582B07F4C022104F5EA7001F036FA3C
:102F3C00606000AB4C22022104F59E7000F054F945
:102F4C00A0600FF2EC110FF2F810FFF777FB2046A0
:102F5C0000F00AF8204600F0B8F8012300221146D0
:102F6C000846FFF7CEFBF2E770B582B06D4C00AAB5
:102F7C006421606801F05DFA054668791E281DD150
:102F8C00694E4021304600F08CFE2021304600F086
:102F9C008AFE0020FFF7ECFB4FF48071634800F0D1
:102FAC0082FE0A23002211460846FFF7AAFB1E20C8
:102FBC0020700FF29C10FFF741FB81E01A280AD118
:102FCC0001F016FB01F034FB1A2020700FF2941064
:102FDC00FFF734FB74E0522849D1534E4021304660
:102FEC0000F061FE2021304600F05BFE0120FFF76F
:102FFC00BFFB0A23002211460846FFF782FB21463D
:10300C0004F10C0001F020FC0FF27010FFF716FB1E
:10301C00A879312804D053D333281BD00DD34FE0DB
:10302C000FF26C10FFF70AFB224604F10C01284644
:10303C0001F096FB3120607042E00FF27410FFF744
:10304C00FDFA224604F10C01284601F0C1FB3220A6
:10305C00607035E00FF27410FFF7F0FA224604F1BD
:10306C000C01284601F0CCFB3320607028E03A2894
:10307C0002D13A20207023E0372802D1372020706B
:10308C001EE0172806D101F079FD01F03FFD172055
:10309C00207015E016280AD101F0F5FD002001F092
:1030AC0099FD012001F096FD1620207008E03128D2
:1030BC0002D13120207003E03D2801D13D20207049
:1030CC002946A06800F0DEF873BD10B5C0B0044608
:1030DC0000A84FF48071FFF747FB20781E280BD116
:1030EC0000A8FFF76CFC062806D30022014600A8B6
:1030FC0001F010FEFF20207040B010BD70B582B002
:10310C000446084D00A9A86800F0A2F8060007D0F4
:10311C004C222146FEF770F93146686801F00DFA31
:10312C0073BD00001C300020000C01400008014061
:10313C004170705F4445564943455F5441534B00C1
:10314C005B25735D20656E7465722E0D0A000000A0
:10315C005363616E2047756E206F6E6C696E6521CE
:10316C000D0A00005761746572206D6574657220DC
:10317C006F6E6C696E65210D0A0000005246494461
:10318C00203930304D206F6E6C696E65210D0A0050
:10319C005548463930304D5F434D443A53454152C2
:1031AC00434820434152442121210D0A00000000D4
:1031BC005548463930304D5F434D443A52454144B1
:1031CC0020434152442121210D0A00005548463923
:1031DC0030304D5F434D443A57524954452043419A
:1031EC0052442121210D0A002DE9F04104460D46DF
:1031FC0016461F4600F056F93F490A689046002AC9
:10320C0001D052680A6000F051F9B8F1000F03D1F7
:10321C005A203870002019E02046311900226B1E0C
:10322C0003E0016008467118521C9A42F9D3002140
:10323C000160C8F80040C8F80440C8F81050C8F83D
:10324C000C50C8F80860084638704046BDE8F0815C
:10325C0070B505460C4600F025F9296900290BD0FC
:10326C006E68316869602969491E296100F01EF990
:10327C0000202070304670BD00F018F95D202070E1
:10328C00002070BD38B504460D4600F00BF92169DD
:10329C00E268914203D300F009F95E2032BD616807
:1032AC00296065602169491C216100F0FFF800204C
:1032BC0032BD10B5114CB421204600F02FFB204636
:1032CC0000210BE002EBC20304EB830224324260C8
:1032DC003F220275002242752430491C89B20A46ED
:1032EC00042AEFDB002141603F210175002141756B
:1032FC000148046010BD0000A83900203C340020B7
:10330C0008B584B00023029311B90093019302E035
:10331C000090481E019004AB00A90748784418306F
:10332C00FCF7DEFE009911B1009A00211170002803
:10333C0058BF029805B000BD1FDFFFFF30B585B048
:10334C0004460D46208A4CF6FF710840E988084374
:10335C002082A0894EF6F3110840A98808432989D8
:10336C00084369890843A081A08A4FF6FF410840B1
:10337C00A9890843A08200A801F0D0FD0F4884421F
:10338C0001D1039800E0029819214843296889006B
:10339C00B0FBF1F06421B0FBF1F109010A096423DF
:1033AC0003FB1200000132301A46B0FBF2F000F0C1
:1033BC000F000843208105B030BD000000380140EB
:1033CC000029818903D041F40051818170474DF669
:1033DC00FF7211408181704710B40B46DBB25B0960
:1033EC00012401F01F0104FA01F1012B01D10C3071
:1033FC0004E0022B01D1103000E01430002A0268E6
:10340C0002D01143016002E022EA0101016010BC0C
:10341C007047002A828A02D011438182704722EAC7
:10342C00010181827047C905C90D81807047808870
:10343C00C005C00D704700220088084200D0012250
:10344C0010467047C9430180704730B40A460021CA
:10345C001346DBB25B09012402F01F0504FA05F5E3
:10346C00012B02D183892B4006E0022B02D1038A67
:10347C002B4001E0838A2B40120A04FA02F20088E6
:10348C001040002B02D0002800D02146084630BC4A
:10349C0070470122090A02FA01F189B2C94301807D
:1034AC0070471F00EFF3108072B6704780F31088DE
:1034BC0070471B48FF210170002080F309881948D0
:1034CC000121017018481949016062B6FEE71648DF
:1034DC00164901607047144814490160704772B670
:1034EC00EFF3098028B1203880E8F00F1049096803
:1034FC00086000B50F4880475DF804EB0E480F4993
:10350C000A7802700A480E490A680260106890E84E
:10351C00F00F203080F309884EF0040E62B670472D
:10352C0022ED00E06118002004ED00E00000001026
:10353C0070180020075100085E1800205F1800204A
:10354C0078180020F8B505460E461446DFF85C05E1
:10355C000078002802D012202070F1BD2878401E7F
:10356C0003280DD8FFF79EFF0746304600F01AFAE5
:10357C00102808DB3846FFF799FF0B202070F1BDAF
:10358C0001202070F1BD314605F10F0000F0FBF970
:10359C003846FFF78BFF00202070F1BD80B501F09D
:1035AC0067FD00F058F900F060F900F08EF900F0BA
:1035BC002DF901F0D9FDFFF77CFE00F0F5FF00F0CE
:1035CC0067F9FFF77EFB01F057FDBDE8014001F004
:1035DC0006BE38B5DFF8D4446079012823D1FFF753
:1035EC0061FF05462078002801D0401E207020780D
:1035FC006178084312D100F0BAF9E078A1788842DA
:10360C000CD0DFF8AC1451F82000E061816B491C40
:10361C008163E068401CE060FFF75DFF2846BDE871
:10362C003240FFF743BF31BD10B5DFF880446079FD
:10363C0000280DD100F09BF9E078A070DFF8701431
:10364C0051F82000E0616061BDE81040FFF731BF28
:10365C0010BD70B501F053FDFFF724FFDFF84C44AB
:10366C00616A491C6162FFF721FF6079012842D130
:10367C00E079002803D0022805D002D307E001200E
:10368C0008E0002006E001200146E17102E0012083
:10369C000021E17100282ED0266A13E00021697701
:1036AC00297F09070BD406F1340122798B781A4350
:1036BC0022710A781219137A4978194311722E68FB
:1036CC00FFF7F4FE06F11405A87F1F2813D0FFF7AF
:1036DC00E9FE698B0029F2D0491E698389B2002961
:1036EC00EDD1297F37221142D8D001F0C8012977BA
:1036FC0001216977D4E770BD7047F8B504460FF225
:10370C00CC35A07A405D0619F67A755D05EBC005DF
:10371C00DFF89C63EDB256F8256006F11C074FF0FC
:10372C00000CA7F812C0B960397D914339757B75CF
:10373C00397D09070AD4DFF874130A79BB7E1A4362
:10374C000A714018017A7A7E114301722146304683
:10375C0000F02CF87968002903D0304600F036F8D8
:10376C003C602846F2BD10B4DFF840134A69D061C2
:10377C004A69343213781B18DC7A52782243DA7295
:10378C00827A4B6993F836301A4382724869343026
:10379C0002785218137A4478A343137204D10A792D
:1037AC00807822EA0000087110BC704710B43430E5
:1037BC0002785218D37A4478A343D37204D18A7A0C
:1037CC00807822EA0000887210BC704770B43430E4
:1037DC000278837840780C6809E01519EE7A8643F4
:1037EC00EE7202D1A57A9D43A57251F8044F002CBC
:1037FC00F3D170BC7047002181720B300A4602E095
:10380C0000F8012B491C0429FADB704710B5A94CB0
:10381C004FF4A071201D00F081F8201D04F124014B
:10382C0000220CE0002300F8043B40F80B1B3F2364
:10383C0000F8013B002300F8103B2031521C092AF0
:10384C00F0DB0021017041603F21C1730021017444
:10385C00201D206010BD954800214162017041700F
:10386C0081714171C1600161704790480021017103
:10387C0000F108010022134602E001F8013B521C42
:10388C00042AFADB19468170C170C161416170472D
:10389C0000B587B088480321049100210391802151
:1038AC00029101904FF6FF7100911F2300F5FE72FB
:1038BC0000210FF2091000F031FC05AA0FF2FC11E7
:1038CC001F2000F014FD07B000BD38B5774C40F256
:1038DC001C6104F1280000F021F88021744800F0EC
:1038EC001DF804F1280004F18401002207E0416175
:1038FC003F251D7000255D705C305C31521C00F161
:10390C004C03102AF3D3002141613F201870084664
:10391C005870206204F12800A06131BD002202E041
:10392C0000F8012B491E89B20029F9D1704738B52E
:10393C00FFF7B8FD04465D4D28786978084311D12E
:10394C0000F015F8E878A97888420BD0584951F85E
:10395C002000E861816B491C8163E868401CE860C9
:10396C00FFF7B5FD2046BDE83240FFF79FBD4F483D
:10397C000FF258110279525C13181B7A595C01EB47
:10398C00C201C1707047002204E011F8013B00F83D
:10399C00013B521C0B78002BF7D100210170104613
:1039AC00C0B27047002101E0401C491C0278002A7B
:1039BC00FAD10846C0B270470000000080B5FFF78E
:1039CC0071FD3A490A69521C0A61FFF76FFD01F05B
:1039DC0056FBF4E72DE9F84304460F46914698460A
:1039EC00FFF760FD314DAE69002E59D07169A961A8
:1039FC00FFF75CFD376006F13007BC7000203870B3
:103A0C007870F085099870600898F060C6F8089096
:103A1C000A983082A6F812800020F871E0083871FC
:103A2C0004F00700F870012097F9041000FA01F176
:103A3C00B97197F90310884078710020F0613062F9
:103A4C00B0627062B8603861F8607861B8613F202C
:103A5C00387700207877304601F050FB304601F083
:103A6C000CFBFFF71FFD124941F82460296A7161B4
:103A7C000021B161296A002900D08E612E6229795A
:103A8C00BA7911432971397949190A7A7B791A4320
:103A9C000A72A979491CA971FFF708FD002002E000
:103AAC00FFF704FD4220BDE8F28300005C18002003
:103ABC0058370020F83100201C2C002075432F4F64
:103ACC00532D49492049646C650000000000010039
:103ADC0002000100030001000200010004000100CB
:103AEC0002000100030001000200010005000100BA
:103AFC0002000100030001000200010004000100AB
:103B0C000200010003000100020001000600010098
:103B1C00020001000300010002000100040001008A
:103B2C000200010003000100020001000500010079
:103B3C00020001000300010002000100040001006A
:103B4C000200010003000100020001000700010057
:103B5C00020001000300010002000100040001004A
:103B6C000200010003000100020001000500010039
:103B7C00020001000300010002000100040001002A
:103B8C000200010003000100020001000600010018
:103B9C00020001000300010002000100040001000A
:103BAC0002000100030001000200010005000100F9
:103BBC0002000100030001000200010004000100EA
:103BCC0002000100030001000200010062F30F2259
:103BDC0062F31F4200B500BF13009646944610399D
:103BEC0028BFA0E80C50FAD85FEA417C28BF0CC073
:103BFC0048BF40F8042BC90728BF20F8022B48BF48
:103C0C0000F8012B00BD0100F0B40022CC7804F0C8
:103C1C000F03E40601D58C7823430C88E4B2002C06
:103C2C001BD0056816E00124944026460F883740C7
:103C3C00B7420ED196000F27B740BD4303FA06F6E4
:103C4C003543CE78282E00D14461CE78482E00D151
:103C5C000461521C082AE6D305600A88FF2A1EDD7F
:103C6C004568002218E0012402F10806B4402646FB
:103C7C000F883740B7420ED196000F27B740BD438F
:103C8C0003FA06F63543CE78282E00D14461CE785F
:103C9C00482E00D10461521C082AE4D34560F0BCC4
:103CAC007047016170474161704770B4154A1468E0
:103CBC00C0F3034583B200F44016B6F5401F06D19D
:103CCC0024F07064156825F0706515600FE0C6026D
:103CDC0006D5032606FA05F5AC4344F0706406E0FD
:103CEC00450D2D0103FA05F5AC4344F07064002931
:103CFC0004D0400D000103FA00F00443146070BCC2
:103D0C00704700000400014025490843254908601C
:103D1C0070472DE9F04305782B460121C278002A23
:103D2C002FD0204A126802F4E062C2F5E062120A57
:103D3C0023F00303194C1F5905F00305ED00FF2672
:103D4C00AE40B74390F801C0C2F1040E0CFA0EFC61
:103D5C0090F802E04FF00F08C14629FA02F909EA7F
:103D6C000E0242EA0C021201AA4032403A431A51A6
:103D7C00007800F01F0291400B4A401142F82010CD
:103D8C0007E005F01F0001FA00F003495A1141F851
:103D9C002200BDE8F083000080E100E000E400E0D8
:103DAC000000FA050CED00E000E100E001F018BAAB
:103DBC002A2803D21030C0B201F028BA704738B5A7
:103DCC0004460D462A2C08D201F00EFA334941F86C
:103DDC002450BDE8324001F00BBA31BD002046E062
:103DEC00012044E0022042E0032040E004203EE0B9
:103DFC0005203CE006203AE0072038E0082036E0B9
:103E0C00092034E00A2032E00B2030E00C202EE0B8
:103E1C000D202CE00F202AE0102028E0112026E0B5
:103E2C00122024E0132022E0142020E015201EE0B4
:103E3C0016201CE017201AE0182018E0192016E0B4
:103E4C001A2014E01B2012E01E2010E01F200EE0B0
:103E5C0020200CE021200AE0222008E0232006E0AC
:103E6C00242004E0282002E0292000E02A2010B5BC
:103E7C00044601F0B9F90A490A78521C0A7001F09B
:103E8C00B7F92A2C05D2054850F82400010000D0BF
:103E9C008047BDE81040FFF79CBB0000F0340020C9
:103EAC005C1800200368C918016002E00168891AD7
:103EBC00016001689142F9D270478168C2689142F1
:103ECC0001D3881A70474068801A0818704710B5DB
:103EDC000446FFF7F2FF6168491E081A10BD38B599
:103EEC000446FFF7EAFF002800D1FEE72069E168ED
:103EFC000D5C6268012104F10C00FFF7D3FF28462A
:103F0C0032BDF8B504460D46160000D1FEE7FFF7AA
:103F1C00D4FFB04200D2FEE7002704E02046FFF7B2
:103F2C00DEFF78557F1CB742F8D3F1BD38B5044697
:103F3C000D46FFF7CCFF002800D1FEE72069A168F1
:103F4C000D546268012104F10800BDE83840A9E76E
:103F5C00002A00D1FEE7002303704260016119467C
:103F6C00C1608160704770B50C46257835B970BD5D
:103F7C0011F8013F1678B34206D0401C2946FDF7D4
:103F8C0077F928B10146224612F8013F002BEFD1F8
:103F9C0070BD010038B5054646480078002801D0B0
:103FAC00002032BDFFF77EFA43490A68140001D0A5
:103FBC0052680A60FFF77AFA002C0BD003202070AD
:103FCC002581002060603F20E07300202074204693
:103FDC00FFF711FC204632BD2DE9F04105460E4697
:103FEC0014462878032802D00120207060E0314864
:103FFC000078002802D00220207059E02F48007869
:10400C00002802D00D20207052E0FFF74BFA074633
:10401C002889002807D0401E28813846FFF746FA29
:10402C000020207044E0DFF89880D8F8000090F869
:10403C00301041F0010180F830100020D8F8001049
:10404C0081F83100D8F80000C6852846FFF78BFBB5
:10405C003846FFF72BFAFFF76AFCFFF723FA0746FF
:10406C00D8F8000090F83110002902D0022903D0B2
:10407C0005E00020207007E00E20207004E02946A7
:10408C00FFF794FB0A2020700020D8F8001081F86C
:10409C003000D8F8001081F83100D8F80010C86151
:1040AC00D8F8001008623846BDE8F041FFF7FEB9B9
:1040BC00BDE8F0815C180020F83100205D1800206C
:1040CC007018002038B504462078032801D0012050
:1040DC0032BDFFF7E7F90546A07A00280CD0002383
:1040EC00012219462046FFF708FB2846FFF7DEF9A8
:1040FC00FFF71DFC002032BD20894FF6FF7188426E
:10410C0006D0401C20812846FFF7D0F9002032BD94
:10411C002846FFF7CBF9322032BD05002DE9F14FCF
:10412C0084B00F4690469946FFF7BCF9DFF8401271
:10413C000978002903D0FFF7B9F93C203CE04D4643
:10414C00DFF8186256F82510002932D1012146F803
:10415C002510FFF7ABF9DDF83CA0DDF840B0129C60
:10416C0022465946504600F00DF923464246394640
:10417C00049800F085FF0146029411980190CDF847
:10418C0000B00E9B52464846FFF724FC040007D1B2
:10419C00DFF8D8010078012809D1FFF7C8FB06E049
:1041AC00FFF780F9002146F82510FFF77FF920462C
:1041BC0002E0FFF77BF9282005B0BDE8F08F2DE970
:1041CC00F8438046DFF8A8010078002801D0402091
:1041DC008BE0B8F11F0F01D13E2086E0FFF762F9AA
:1041EC000446B8F1FF0F04D1DFF87401006890F8B1
:1041FC003280DFF8685155F82860002E04D1204633
:10420C00FFF754F9432070E0012E04D12046FFF74C
:10421C004DF93D2069E006F130073879DFF844119B
:10422C00425C7B799A4342543879405C002805D132
:10423C00DFF834010178BA7991430170F1690029F2
:10424C0002D03046FFF7B2FA316A002902D030466C
:10425C00FFF7BCFAB06A002801D000F0ADFF0020D7
:10426C00F08538707870DFF80C9199F80000FF2811
:10427C0002D0401C89F800002046FFF717F9FFF721
:10428C003BFAFFF70FF9044699F80000002802D01A
:10429C00401E89F80000304600F0F0FE36480178E8
:1042AC00491E0170002045F828007069B169002989
:1042BC0005D10021816170693049086003E04861D3
:1042CC00B069716988612E480168716106603F2090
:1042DC003877002078772046FFF7E8F823480078F5
:1042EC00012801D1FFF723FB0020BDE8F283F8B5CC
:1042FC0006460D4614461E480078002802D01220AF
:10430C002070F1BDFFF7CEF80746FF2E03D11448FD
:10431C00006890F83260114850F82660002E01D0E9
:10432C00012E05D13846FFF7C1F843202070F1BDAE
:10433C002846FFF737FB102805DB3846FFF7B6F8A1
:10434C0041202070F1BD294606F14C00FFF71BFB04
:10435C003846FFF7ABF800202070F1BD583700202D
:10436C0070180020641800206018002061180020CC
:10437C005C1800205D180020621800207C180020BA
:10438C007418002002F00302032A06D1002200292F
:10439C0002E0491E40F8042BFBD170472DE9F04197
:1043AC0004460D46DFF830020078002801D00020CA
:1043BC003DE0FFF777F8DFF8246231680F0001D099
:1043CC0049683160FFF772F8002F2FD0FFF76AF8B9
:1043DC00DFF80C120A689046B8F1000F20D0126872
:1043EC000A60FFF763F8C8F8044004EB8500C8F8CE
:1043FC000800C8F80C40C8F81040A8F81450002069
:10440C00A8F816000220387000203881C7F8048004
:10441C003F20F873002038743846FFF7ECF905E0BC
:10442C00316879603760FFF741F800273846BDE8FE
:10443C00F0812DE9F04106460F46144630780228EB
:10444C0003D001202070002075E06348007800281C
:10445C0003D00220207000206DE062480078002814
:10446C0003D00D202070002065E0FFF71BF80546F7
:10447C007068C18A002913D001690A1D02610E6897
:10448C00C18A491EC18201698268914201D1416889
:10449C0001612846FFF70AF80020207030464AE0F8
:1044AC00DFF84481D8F8000090F8301041F0040196
:1044BC0080F830100020D8F8001081F83100D8F8BE
:1044CC000000C7853046FFF74EF92846FEF7EEFF91
:1044DC00FFF72DFAFEF7E6FF0546D8F8000000F1CD
:1044EC0024014A7B002A02D0022A04D007E00E687D
:1044FC000020207009E000260E20207005E03146D7
:10450C00FFF754F900260A2020700020D8F800107C
:10451C0081F83000D8F8001081F83100D8F800107C
:10452C00C861D8F800100862D8F800104862284614
:10453C00FEF7BCFF3046BDE8F08170B506460C4670
:10454C003078022801D0012070BDFEF7ABFF054684
:10455C00B07A00280CD00023042221463046FFF705
:10456C00CCF82846FEF7A2FFFFF7E1F9002070BD5A
:10457C007068C18A828A914204D32846FEF796FF5E
:10458C001E2070BDC1680A1DC2600C60C18A491C26
:10459C00C182C1688268914201D14168C1602846DC
:1045AC00FEF784FF002070BD10B5104C6021204632
:1045BC00FFF7B4F9204604F11801002203E040F89B
:1045CC00181B1831521C032AF9DB00210160044826
:1045DC00046010BD000000005C180020F8310020C1
:1045EC00AC3900205D18002070180020D83700204E
:1045FC0010B52D4C40212046FFF753FB20212046BF
:10460C00FFF751FB0020FEF7B3F8284C00230122E2
:10461C000521204600F069F8204600F02BF8FF2811
:10462C0005D10FF22410BDE81040FEF707B810BDFD
:10463C0010B582B000A8002101601C4C02230A4670
:10464C000321204600F051F8204600F013F80146F3
:10465C0004290AD1E0788DF8000020798DF801004A
:10466C0000A862798270A279C270002200A800F0C2
:10467C0051FB13BD10B59AB0044600A86421FEF797
:10468C0073F80B4801784A1E0270002909D000A863
:10469C00FEF795F90028F4D000A9204600F00AF89E
:1046AC0000E0FF201AB010BD000C0140783900204A
:1046BC00580100200A7802704A7842708B78052ADB
:1046CC0008D1C370CA7802710A7942714979817133
:1046DC00084670478370CA78C2700A7902714A79A9
:1046EC00027289794172807870477CB500AC0025E4
:1046FC002E4660C46924047041702946C17002F0D2
:10470C000F0101712946417103F00F01817101788C
:10471C008DF8001000AC41786170C1788DF80210F2
:10472C000179E1704179217180796071062100A8CD
:10473C0000F010FE0112A1718DF80700082100A8ED
:10474C0000F0F2FD73BD00005761746D6574204973
:10475C006E697420537563636573730D0A000000F2
:10476C0070B505460C46892084F82601204600F0D9
:10477C00A8FF06001ED00020E8712E723246611D83
:10478C0005F10900FCF738FE0FF24820FDF756FF43
:10479C00002506E0281941790FF24C20FDF74EFF59
:1047AC006D1CB542F6DB09A0FDF748FF1E2001F099
:1047BC00BEF903E00820E87100202872002231467F
:1047CC00601D00F0A7FA002070BD00000A00000078
:1047DC0010B592B00C4600A84421FDF7C5FF81200E
:1047EC0084F8260100A9204601F00DF802469DF838
:1047FC0002100DF1030000F08DFA002012B010BD74
:10480C0038B504460D4600F0BCFF822085F8260121
:10481C002146284601F05DF800280AD00020E071FE
:10482C0020720FF2CC10FDF709FF1E2001F07FF96A
:10483C0003E00820E0710020207200222978681D16
:10484C0000F068FA002032BD38B504460D4641F23E
:10485C008830C4F82C0152202870204600F04AF809
:10486C002946204600F016F82A460021204600F082
:10487C0064F82A461E21204600F086F80023012207
:10488C0019460846FDF73DFF0FF28010FDF7D6FEE6
:10489C00102032BD70B582B004460D460FF2841064
:1048AC00FDF7CCFE01208DF80000D4F82C6104F249
:1048BC0025100121017073214170012200A92046AD
:1048CC0000F0BEFE0FF27810FDF7B8FE0120687004
:1048DC0005E00123002211460846FDF712FF304681
:1048EC00461E002804D0204600F016FF1028F0D1F8
:1048FC00102076BD70B582B004460D46FF208DF8B1
:10490C00000004F2251630700FF25010FDF796FEE1
:10491C0070207070002200A9204600F091FE002348
:10492C00012219460846FDF7ECFE0FF24C10FDF77C
:10493C0085FE00206870102076BD73B504461546C0
:10494C000FF24C10FDF77AFE742084F82601D4F88F
:10495C002C619DF80400042801DB112076BD012296
:10496C0001A9204600F06CFE0FF24410FDF766FE24
:10497C000220687002E0204600F0CEFE3046461E53
:10498C000028F8D1102076BD73B5044615460FF2F9
:10499C004010FDF753FED4F82C619DF8040022283A
:1049AC0002DB21208DF80400012201A9204600F031
:1049BC0047FE0FF23C10FDF741FE02E0204600F0EE
:1049CC00ABFE3046461E0028F8D10320687011203B
:1049DC0076BD00006C697374203930306D206361D2
:1049EC007264206570633A00253032582000000054
:1049FC007772697465203930306D20636172642080
:104A0C00626C6F636B5F646174613A005548462059
:104A1C003930304D20496E6974204F7665722121F2
:104A2C00210D0A005548463930304D20536574200D
:104A3C00416464722053746172742121210D0A0047
:104A4C005548463930304D205365742041646472AA
:104A5C00204F7665722121210D0A000055484639F8
:104A6C0030304D205265736574205374617274211B
:104A7C0021210D0A000000005548463930304D20E8
:104A8C005265736574204F7665722121210D0A00E1
:104A9C005548463930304D2053455420414E5445ED
:104AAC004E4E412053746172742121210D0A000075
:104ABC005548463930304D2053455420414E5445CD
:104ACC004E4E41204F7665722121210D0A000000C7
:104ADC005548463930304D2053455420504F57459A
:104AEC00522053746172742121210D0A00000000C0
:104AFC005548463930304D2053455420504F57457A
:104B0C0052204F7665722121210D0A007FB500A835
:104B1C001021FDF729FE274CA568E06800282CD051
:104B2C00254E00203071022070710020B0710120E0
:104B3C00F071314600A800F0D6FB05E001230022FD
:104B4C0011460846FDF7DDFD2846451E002805D018
:104B5C00072100A8FDF74DFF0028EFD1002D03D150
:104B6C00E068401CE0607FBD00A9304600F0ACFB63
:104B7C00F178301D00F024F8E0807FBD10B50D48B1
:104B8C0041F2883181600521C160012101700A4820
:104B9C00017003214170094C40212046FFF781F838
:104BAC0020212046FFF77FF80020BDE81040FDF7DC
:104BBC00DFBD00006839002014390020000C0140D2
:104BCC000022002903D00178407840EA01221046E7
:104BDC00704710007FB5064600A81021FDF7C4FDF4
:104BEC00364CE568002E1ED100206071344E3071B9
:104BFC00062070710020B0710120F071314600A8C0
:104C0C0000F071FB2846451E00282BD0072100A878
:104C1C00FDF7EFFE002825D001230022114608469F
:104C2C00FDF76FFDEEE7012E1CD101206071244EC3
:104C3C000020B080B0710220F071314600A800F065
:104C4C0052FB05E00123002211460846FDF759FDF1
:104C5C002846451E002805D0072100A8FDF7C9FEEF
:104C6C000028EFD1002D03D12069401C20617FBDAD
:104C7C00134E00A9304600F027FBF278311D204678
:104C8C0000F022F87FBD10B50C4841F28831C160AC
:104C9C000521016101210170094801700321417056
:104CAC00084C40212046FEF7FCFF20212046FEF751
:104CBC00FAFF0020BDE81040FDF75ABD4439002032
:104CCC002C390020000C0140002A15D04279002A12
:104CDC0002D0012A06D00FE00A78497841EA022175
:104CEC00418109E00A784B7843EA022202818A78F2
:104CFC00C97841EA0221C1800020704710B50C46EA
:104D0C0000F0EDFF2346002211460846FDF7F9FCA2
:104D1C00002010BD10B5014C02E000BF98350020FA
:104D2C00E27121720A46014604F10900FCF764FBAA
:104D3C002046BDE8104010B5D8B0044600A820218C
:104D4C00FDF712FD48A84021FDF70EFD08A84FF411
:104D5C008071FDF709FD0022402148A8FEF736FFBF
:104D6C000022FF2108A8FEF731FF002C44D0207848
:104D7C008DF8000000A86188090A41706188817073
:104D8C0021798DF8031061790171A1794171E17973
:104D9C008171217AC171227A04F1090102A8FCF710
:104DAC002BFB04F14900017800AA237A9A1811729E
:104DBC00407800A9227A51184872207A00F10A042E
:104DCC00E4B2224608A900A801F04EF808AB22462E
:104DDC000FF2280148A801F06DF848A90FF22C0039
:104DEC00FDF72CFC0123002211460846FDF789FC37
:104DFC00002148A8FFF782FF58B010BD41542B4E3C
:104E0C004D47533D25642C25730D0A004261636B9D
:104E1C002053686F772121213A257300834801685C
:104E2C0041F0010101604168814A11404160016813
:104E3C00804A11400160016821F4802101604168C1
:104E4C0021F4FE01416000218160704777490A68B6
:104E5C0022F480320A600A6822F480220A60B0F5DB
:104E6C00803F03D0B0F5802F05D07047086840F420
:104E7C00803008607047086840F4A02008607047D4
:104E8C0038B500246C4D312000F0BDF828706868EE
:104E9C00401C68602878002804D1686840F2FF1133
:104EAC008842F0D1312000F0AEF8002800D0012467
:104EBC00204632BD614A136823F47C13184308431F
:104ECC00106070475E49086070475C490A68920838
:104EDC0050EA8200086070475848006800F00C00E7
:104EEC00704756490A6822F0F00210430860704778
:104EFC0052490A6822F4E0621043086070474F4937
:104F0C000A6822F4605242EAC000086070474B49BC
:104F1C000A6822F4404210430860704730B4474995
:104F2C000A6802F00C02082A17D10A6802F47012FF
:104F3C00920C921C0B6813F4803303D1414B5A43EF
:104F4C0002600CE00B689B0303D53E4B5A43026096
:104F5C0005E03D4B5A43026001E03B4A02600A689F
:104F6C0002F0F0030FF2F40204681B099D5C234667
:104F7C00EB4043600C6804F4E064240AA45C1D4616
:104F8C00E54085600B6803F460534468DB0A9B5C66
:104F9C002246DA40C260096801F440410FF2CC03AA
:104FAC00890BC95CB2FBF1F1016130BC7047274A37
:104FBC000029116802D008431060704721EA0000F4
:104FCC0010607047224A0029116802D00843106013
:104FDC00704721EA0000106070471E4A00291168D2
:104FEC0002D008431060704721EA0000106070473F
:104FFC00194A0029116802D008431060704721EA51
:10500C000000106070474109084A012901D111685C
:10501C0004E0022901D1116A00E0516A00F01F007E
:10502C000A46C24002F00100704700000010024026
:10503C000000FFF8FFFFF6FE843900200410024048
:10504C006000424200093D0000127A001410024038
:10505C00181002401C1002400C100240000000000E
:10506C0001020304010203040607080902040608EE
:10507C0000203A4908807047704770477047704766
:10508C004FF08073136042F8040C6FF0010042F88B
:10509C00080C4FF0123042F80C0C4FF0033042F871
:1050AC00100C4FF0023042F8140C4FF0013042F863
:1050BC00180C42F81C1C4FF0113042F8200C4FF029
:1050CC00103042F8240C4FF0093042F8280C4FF005
:1050DC00083042F82C0C4FF0073042F8300C4FF0EF
:1050EC00063042F8340C4FF0053042F8380CA2F17F
:1050FC003C004FF00431016070477047704717480F
:10510C000188491C018089B2642903DB00210180DC
:10511C00FDF7BFBD704780B5FEF7C4F910490A789A
:10512C00521C0A70FEF7C2F9FEF793FABDE8014073
:10513C00FEF74FBA80B500F032FF4FF47A71B0FB36
:10514C00F1F00849401E4860086840F0050008600E
:10515C00086840F00200086001BD0000C63900205C
:10516C005C18002010E000E010B5124C8C21204699
:10517C00FEF7D4FB204604F11C0100220CE00023B6
:10518C0000F8043B40F8061B3F2300F8013B0023CA
:10519C0000F8113B1C31521C042AF0DB0021017079
:1051AC0041603F2181720021C1720148046010BD31
:1051BC00A4390020CC36002041680268002906D1B1
:1051CC00C1684A60002A06D00021516003E00A60E1
:1051DC00002A00D0516000218068816270477047BE
:1051EC0072B6704762B67047EFF3108072B67047B4
:1051FC0080F310887047B0FA80F0704790FAA0F0F6
:10520C00704730BF704720BF7047240010B504466C
:10521C000F2835D8DFE800F05050505008131E50BE
:10522C005050505050505029FFF7DEFF23490A6868
:10523C0042F480320A60BDE81040FFF7D9BFFFF797
:10524C00D3FF1E490A6842F400320A60BDE81040E0
:10525C00FFF7CEBFFFF7C8FF18490A6842F4802257
:10526C000A60BDE81040FFF7C3BFFFF7BDFF14494C
:10527C00CA6842F00102CA60BDE81040FFF7B8BF2F
:10528C000F48006840012130C0B2844214D2FFF7AD
:10529C00ABFFA4F110010A1101EBD26252110123F0
:1052AC00A1EB421103FA01F1D2B2064B43F82210E2
:1052BC00BDE81040FFF79CBF10BD000024ED00E0DE
:1052CC0004E000E000E100E080B50A7802704A7862
:1052DC0042708A78C270002A03D0C91C001DFCF7EA
:1052EC008BF8002002BD38B504460D462878207096
:1052FC0068786070E878A070EA78002A03D0291DDD
:10530C00E01CFCF779F8E878C11C89B2204600F063
:10531C0021F80020E9780919C870E9780919087191
:10532C0008212046BDE8344010B504464FF4807186
:10533C000748FEF7B6FC0A23002211460846FDF783
:10534C00E0F908212046BDE8104000F0F5BC000053
:10535C000008014010B4FF22134609E010F8014B7D
:10536C0054400FF22002A25C5A400FF21813E35C77
:10537C000C46611EA4B2002CF0D143EA022010BCF2
:10538C007047000000C1814001C0804101C08041D4
:10539C0000C1814001C0804100C1814000C18140F9
:1053AC0001C0804101C0804100C1814000C18140E9
:1053BC0001C0804100C1814001C0804101C08041D9
:1053CC0000C1814001C0804100C1814000C18140C9
:1053DC0001C0804100C1814001C0804101C08041B9
:1053EC0000C1814000C1814001C0804101C08041A9
:1053FC0000C1814001C0804100C1814000C1814099
:10540C0001C0804101C0804100C1814000C1814088
:10541C0001C0804100C1814001C0804101C0804178
:10542C0000C1814000C1814001C0804101C0804168
:10543C0000C1814001C0804100C1814000C1814058
:10544C0001C0804100C1814001C0804101C0804148
:10545C0000C1814001C0804100C1814000C1814038
:10546C0001C0804101C0804100C1814000C1814028
:10547C0001C0804100C1814001C0804101C0804118
:10548C0000C1814000C0C101C30302C2C60607C7E8
:10549C0005C5C404CC0C0DCD0FCFCE0E0ACACB0B58
:1054AC00C90908C8D81819D91BDBDA1A1EDEDF1F88
:1054BC00DD1D1CDC14D4D515D71716D6D21213D378
:1054CC0011D1D010F03031F133F3F23236F6F73728
:1054DC00F53534F43CFCFD3DFF3F3EFEFA3A3BFB18
:1054EC0039F9F83828E8E929EB2B2AEAEE2E2FEFC8
:1054FC002DEDEC2CE42425E527E7E62622E2E32338
:10550C00E12120E0A06061A163A3A26266A6A76767
:10551C00A56564A46CACAD6DAF6F6EAEAA6A6BABD7
:10552C0069A9A86878B8B979BB7B7ABABE7E7FBF07
:10553C007DBDBC7CB47475B577B7B67672B2B373F7
:10554C00B17170B0509091519353529296565797A7
:10555C00559594549C5C5D9D5F9F9E5E5A9A9B5B97
:10556C0099595898884849894B8B8A4A4E8E8F4F47
:10557C008D4D4C8C448485458747468682424383B7
:10558C004181804010B40022134604E010F8014B16
:10559C00A218D2B25B1CDBB28B42F7D3D043401CB7
:1055AC00C0B210BC704770B505460C46A0202070E8
:1055BC00A878C01C60702878A0706878E070261DF0
:1055CC00AA78002A05D0E91C3046FBF715FFA8780D
:1055DC0086192546711BC9B22046FFF7D3FF06F882
:1055EC00010B701BC0B270BDF8B504460D46207897
:1055FC00A02801D00020F2BD66783046C01EA870ED
:10560C00032E01DA0020F2BDA0782870E0786870D3
:10561C00271DAA78002A05D03946E81CFBF7ECFEBA
:10562C00A878C719711CC9B22046FFF7ABFF3978AF
:10563C00884201D00020F2BD781C001BC0B2F2BD24
:10564C00F0B5C1B005460E46144600A84FF4807163
:10565C00FDF78AF8112705F1230005F225110A78C8
:10566C000270497841708470002105E08A5D4B1905
:10567C0083F82620491CC9B2A142F7DB00A9FFF729
:10568C0092FF040016D00FF2FC20FCF7D7FF002588
:10569C0006E000A8295C0FF20030FCF7CFFF6D1C70
:1056AC00A542F6DBB4A0FCF7C9FF214600A800F028
:1056BC0043FB1027002F01D0102000E0112041B037
:1056CC00F0BD38B5044601208DF80000D4F82C51FB
:1056DC00024600A92046FFF7B3FF05E00123002294
:1056EC0011460846FDF70DF82846451E002804D043
:1056FC00204600F011F81028F0D104F12505A87807
:10570C00C0084200227004F12901601DFBF774FEF1
:10571C002878001FC0B232BD70B5C0B0044600A8D6
:10572C004FF48071FDF720F800A8FDF748F905004B
:10573C0024D00FF26C20FCF781FF002606E000A8B5
:10574C00315C0FF25420FCF779FF761CAE42F6D395
:10575C0089A0FCF773FF94F82601892803D08128CF
:10576C0001D0822808D10FF24820FCF767FF04F122
:10577C00230100A8FFF738FF102000E0002040B004
:10578C0070BD70B590B006460C4600A80FF24421CF
:10579C004022FBF741FED4F82C51852084F82601D9
:1057AC00002005E08119497A00AA82189170401CEA
:1057BC000C28F7DB0E2200A92046FFF741FF0FF261
:1057CC005420FCF73BFF05E001230022114608465C
:1057DC00FCF797FF2846451E00280AD067A0FCF767
:1057EC002DFF2046FFF798FF1028EDD162A0FCF7A3
:1057FC0025FF61A0FCF722FF002D01D1082000E05D
:10580C00002010B070BDF8B505460C4600A80FF28C
:10581C0020210A680260D5F82C61032200A92846D1
:10582C00FFF70EFF0FF20C20FCF708FF05E0012339
:10583C00002211460846FCF764FF3046461E00283D
:10584C000AD04EA0FCF7FAFE2846FFF765FF102899
:10585C00EDD149A0FCF7F2FE47A0FCF7EFFE002EBD
:10586C0001D10820F2BD0FF2E810FCF7E7FE00268C
:10587C0005F1250707E0701990F826100FF21810A3
:10588C00FCF7DCFE761C38788642F4DB3CA630460E
:10589C00FCF7D4FEF878A0F11002A270D2B205F198
:1058AC003901E01CFBF7A8FD0FF2B410FCF7C6FEA3
:1058BC00002506E02819C1780FF2DC00FCF7BEFECB
:1058CC006D1CA0788542F5DB3046FCF7B7FEA0785E
:1058DC00F2BD70B590B004460D4600A80FF29411BD
:1058EC004022FBF799FD0C2205F10901601DFBF725
:1058FC0083FD0FF2C010FCF7A1FE00260BE070191F
:10590C00407D00A97118C8717019417D0FF2880093
:10591C00FCF794FE761C102EF1DB17A52846FCF73D
:10592C008DFED4F82C61172200A92046FFF788FEC3
:10593C000FF29410FCF782FE05E0012300221146C1
:10594C000846FCF7DEFE3046461E00280AD00BA0A7
:10595C00FCF774FE2046FFF7DFFE1028EDD1284639
:10596C00FCF76CFE2846FCF769FE002E01D10820DE
:10597C0000E0207810B070BD0D0A00002E2E2E0015
:10598C000A0000000D0A5548462053656E642044F9
:10599C006174613A0000000025303258200000008C
:1059AC005548463930304D20526563763A00000038
:1059BC0042756666657220746F205061636B657406
:1059CC00205374617274696E67202E2E2E2E2E2E2B
:1059DC000D0A0000000C0000000000000000000098
:1059EC0000000000000000000000000000000000AB
:1059FC00000000000000000000000000000000009B
:105A0C00000000000000000000000000000000008A
:105A1C00000000005761697474696E672053656CEF
:105A2C006563742054616720446174610000000058
:105A3C000300080053746172742052656376696EBA
:105A4C00672055484620446174612E2E2E000000BC
:105A5C0052656164204361726420446174613A0050
:105A6C00414E49534953204361726420446174612F
:105A7C003A000000000000000300080000000000D5
:105A8C00000000000000000000000000000000000A
:105A9C0000000000000000000000000000000000FA
:105AAC0000000000000000000000000000000000EA
:105ABC0000000000526561642057726974652044CF
:105ACC006174613A00000000576169742057726973
